:100000000C9434000C9446000C942D050C9446007E
:100010000C9446000C9446000C9446000C94460048
:100020000C9446000C9446000C9446000C94460038
:100030000C9446000C9446000C9446000C94460028
:100040000C9446000C9446000C9446000C94460018
:100050000C9446000C9446000C9446000C94460008
:100060000C9446000C94460011241FBECFEFD8E03C
:10007000DEBFCDBF11E0A0E0B1E001C01D92A43011
:10008000B107E1F70E9448000C94AB050C94000006
:10009000DF93CF93CDB7DEB7CA54D0400FB6F894F4
:1000A000DEBF0FBECDBF1C8A1B8A1A8A80ED97E087
:1000B000998B888B8FEF8F878FEF8E878FEF8D8750
:1000C0001C861B861A868CE0FE017596DF01282FA0
:1000D0001D922A95E9F786E0FE01B196DF01282FEF
:1000E0001D922A95E9F7198618861F821E821D82A5
:1000F00081E08C8382E08B831A82A9E6B0E0E9E696
:10010000F0E0808184608C93ADE3B0E0EDE3F0E05B
:10011000808182608C937894A4E2B0E0E4E2F0E025
:1001200080818E608C93AAE2B0E0EAE2F0E0808108
:1001300087788C93A4E2B0E0E4E2F0E080818F73F2
:100140008C932A893B89888999892817390711F462
:100150001B8A1A8A8C85813009F41E868B85813032
:1001600009F41F868A85813009F41D868C898823CD
:10017000F1F48E85882339F0A5E2B0E0E5E2F0E005
:10018000808184608C938F85882339F0A5E2B0E06C
:10019000E5E2F0E0808188608C938D85882339F0DA
:1001A000A5E2B0E0E5E2F0E0808182608C939C897A
:1001B0008D85891738F4A5E2B0E0E5E2F0E08081B2
:1001C0008D7F8C939C898F85891738F4A5E2B0E0E8
:1001D000E5E2F0E08081877F8C939C898E8589178A
:1001E00038F4A5E2B0E0E5E2F0E080818B7F8C930B
:1001F0008C898F5F8C8B8A899B8901969B8B8A8BDC
:100200002A893B89888999892817390709F06FC39A
:10021000E3E2F0E08081882F90E0807490702B966C
:100220001FAE2B97009721F431E02B963FAF2B9711
:10023000E9E2F0E08081882F90E0807490702A9647
:100240001FAE2A97009721F481E02A968FAF2A9754
:100250002B968FAD2B972A969FAD2A978923A82F8F
:10026000B0E02996BFAFAEAF2997E3E2F0E080811E
:1002700027961FAE1EAE2797882334F021E030E08A
:1002800027963FAF2EAF279729968EAD9FAD299722
:100290002796AEADBFAD27978A239B23009709F41D
:1002A000FEC081E08E83A5E2B0E0E5E2F0E080816F
:1002B00088608C93A5E2B0E0E5E2F0E080818460A4
:1002C0008C93A5E2B0E0E5E2F0E0808182608C935F
:1002D0002AC0888599850196998788878885998518
:1002E000BFE180349B0729F4198618868F818F5FC0
:1002F0008F838F818B30B8F0A5E2B0E0E5E2F0E0CB
:1003000080818D7F8C93A5E2B0E0E5E2F0E0808112
:1003100084608C93A5E2B0E0E5E2F0E08081877F25
:100320008C9382E08E83E3E2F0E08081882F90E07E
:100330008074907025961FAE2597009721F421E0D8
:1003400025962FAF2597E9E2F0E08081882F90E095
:100350008074907024961FAE2497009721F431E0AA
:1003600024963FAF249725968FAD259724969FAD71
:1003700024978923A82FB0E02396BFAFAEAF239771
:10038000E3E2F0E0808121961FAE1EAE2197882324
:1003900034F021E030E021963FAF2EAF2197239635
:1003A0008EAD9FAD23972196AEADBFAD21978A2329
:1003B0009B23009709F08DCF8E81823059F58D8176
:1003C000882F90E0880F991F880F991F880F991F19
:1003D0006E850E949D058C81882F90E0880F991F63
:1003E000880F991F880F991F6D850E949D058B812D
:1003F000882F90E0880F991F880F991F880F991FE9
:100400006F850E949D051F82198618861E821C8694
:100410001B861A868E81813009F069C28D818D5FBD
:100420008D838C818D5F8C838B818D5F8B838A81A3
:100430008F5F8A838A81853031F41A821D8281E040
:100440008C8382E08B838D81882F90E0880F991FA9
:10045000880F991F880F991F0E9495058E878C81A0
:10046000882F90E0880F991F880F991F880F991F78
:100470000E9495058D878B81882F90E0880F991FAA
:10048000880F991F880F991F0E9495058F871F82DB
:10049000198618861E821C861B861A8628C2E9E2E7
:1004A000F0E08081882F90E0807190701EAE009700
:1004B00011F4B1E0BEAFE9E2F0E08081882F90E076
:1004C000887090701DAE009711F421E02DAF8EADB5
:1004D0003DAD8323A82FB0E0BCAFABAFE9E2F0E0C5
:1004E0008081882F90E0807290701AAE19AE0097CC
:1004F00021F421E030E03AAF29AF8BAD9CADA9AD3E
:10050000BAAD8A239B23009709F475C015C0A5E2F4
:10051000B0E0E5E2F0E0808184608C93A5E2B0E099
:10052000E5E2F0E08081877F8C93A5E2B0E0E5E230
:10053000F0E080818D7F8C93E9E2F0E08081882F6C
:1005400090E08071907018AE009711F4B1E0B8AFF0
:10055000E9E2F0E08081882F90E0887090701FAA17
:10056000009711F421E02FAB88AD3FA98323A82F7A
:10057000B0E0BEABADABE9E2F0E08081882F90E067
:10058000807290701CAA1BAA009721F421E030E031
:100590003CAB2BAB8DA99EA9ABA9BCA98A239B23FD
:1005A000009709F0B4CF8D81882F90E0880F991FB4
:1005B000880F991F880F991F6FEF0E949D058C81EE
:1005C000882F90E0880F991F880F991F880F991F17
:1005D0006FEF0E949D058B81882F90E0880F991FF7
:1005E000880F991F880F991F6FEF0E949D051C8629
:1005F0001B861A867CC1E3E2F0E08081882F90E0C0
:10060000807490700097F9F48D899E891AAAB2E0DF
:100610008A389B0710F421E02AAB8D899E8919AA9C
:10062000009711F031E039AB8AA999A98923882371
:1006300029F081E08A871E8A1D8A05C08D85815038
:100640008D8781E089A3E9E2F0E08081882F90E046
:10065000807190700097F9F48F89988D18AAA2E0A4
:100660008A389A0710F4B1E0B8AB8F89988D1FA62D
:10067000009711F021E02FA788A93FA583238823A5
:1006800029F01A8619A2188E1F8A05C08D858F5FE2
:100690008D8781E08AA3E9E2F0E08081882F90E0F5
:1006A000807490700097F9F4898D9A8D1EA6A2E04F
:1006B0008A389A0710F4B1E0BEA7898D9A8D1DA6DD
:1006C000009711F021E02DA78EA53DA58323882357
:1006D00029F081E08C871A8E198E05C08E85815095
:1006E0008E8781E08BA3E9E2F0E08081882F90E0A3
:1006F000887090700097F1F48B8D9C8D1CA6A2E001
:100700008A389A0710F4B1E0BCA78B8D9C8D1BA68C
:10071000009711F021E02BA78CA53BA5832388230C
:1007200021F01C861C8E1B8E05C08E858F5F8E87E8
:1007300081E08CA3E3E2F0E080818823FCF08D8DE2
:100740009E8D1AA6A2E08A389A0710F4B1E0BAA7E3
:100750008D8D9E8D19A6009711F021E029A78AA5FD
:1007600039A58323882329F081E08B871E8E1D8E77
:1007700005C08F8581508F8781E08DA3E9E2F0E08D
:100780008081882F90E0807290700097F1F48F8DB7
:1007900098A118A6A2E08A389A0710F4B1E0B8A789
:1007A0008F8D98A11FA2009711F021E02FA388A59B
:1007B0003FA18323882321F01B8618A21F8E05C02A
:1007C0008F858F5F8F8781E08EA389A18130B1F4FF
:1007D000E3E2F0E08081882F90E0807490700097D1
:1007E00029F08D899E8901969E8B8D8B8D899E899E
:1007F0008A30910519F41E8A1D8A19A28AA18130B6
:10080000B1F4E9E2F0E08081882F90E0807190708F
:10081000009729F08F89988D0196988F8F8B8F89FB
:10082000988D8A30910519F4188E1F8A1AA28BA10F
:100830008130B1F4E9E2F0E08081882F90E08074AB
:100840009070009729F0898D9A8D01969A8F898FE3
:10085000898D9A8D8A30910519F41A8E198E1BA2F2
:100860008CA18130B1F4E9E2F0E08081882F90E042
:1008700088709070009729F08B8D9C8D01969C8FCD
:100880008B8F8B8D9C8D8A30910519F41C8E1B8E5D
:100890001CA28DA1813091F4E3E2F0E080818823F5
:1008A0002CF48D8D9E8D01969E8F8D8F8D8D9E8DBE
:1008B0008A30910519F41E8E1D8E1DA28EA18130E5
:1008C000B1F4E9E2F0E08081882F90E080729070CE
:1008D000009729F08F8D98A1019698A38F8F8F8D07
:1008E00098A18A30910519F418A21F8E1EA2E3E286
:1008F000F0E08081882F90E080749070009749F13B
:10090000E9E2F0E08081882F90E08071907000979C
:1009100001F1E3E2F0E080818823DCF4E9E2F0E039
:100920008081882F90E080729070009791F0E9E2CA
:10093000F0E08081882F90E080749070009749F0FB
:10094000E9E2F0E08081882F90E088709070009755
:1009500041F41092000110920101109202011092D4
:1009600003018091000190910101A0910201B091D9
:1009700003010196A11DB11D809300019093010117
:10098000A0930201B09303018091000190910101B5
:10099000A0910201B0910301803824E892072EE172
:1009A000A20720E0B20708F4CCCBA5E2B0E0E5E274
:1009B000F0E080818B7F8C93A5E2B0E0E5E2F0E08F
:1009C00080818D7F8C93A5E2B0E0E5E2F0E080814C
:1009D000877F8C93A4E6B0E0E4E6F0E08081846059
:1009E0008C93A4E6B0E0E4E6F0E0808180688C932C
:1009F000A4E6B0E0E4E6F0E0808180628C93A4E6B7
:100A0000B0E0E4E6F0E0808188608C93A4E6B0E09A
:100A1000E4E6F0E0808180648C93A4E6B0E0E4E654
:100A2000F0E0808181608C93A3E5B0E0E3E5F0E045
:100A30008081817F82608C93F894A3E5B0E0E3E548
:100A4000F0E0808181608C9385B7806685BF8F7D63
:100A500085BF89837894889574CB1F920F920FB6C7
:100A60000F9211242F938F939F93AF93BF93EF9384
:100A7000FF93DF93CF93CDB7DEB7809100019091C4
:100A80000101A0910201B0910301803824E892078E
:100A90002EE1A20720E0B20790F1A3E5B0E0E3E584
:100AA000F0E080818E7F8C937894A4E6B0E0E4E659
:100AB000F0E080818B7F8C93A4E6B0E0E4E6F0E088
:100AC00080818F778C93A4E6B0E0E4E6F0E080814B
:100AD0008F7D8C93A4E6B0E0E4E6F0E08081877F30
:100AE0008C93A4E6B0E0E4E6F0E080818F7B8C9309
:100AF000A4E6B0E0E4E6F0E080818E7F8C93109273
:100B00000001109201011092020110920301CF9195
:100B1000DF91FF91EF91BF91AF919F918F912F91B5
:100B20000F900FBE0F901F901895F999FECF92BDB0
:100B300081BDF89A992780B50895262FF999FECF9F
:100B40001FBA92BD81BD20BD0FB6F894FA9AF99AEA
:0A0B50000FBE01960895F894FFCF40
:00000001FF
